{
  "contractName": "bird",
  "abi": [
    {
      "constant": true,
      "inputs": [],
      "name": "getMatrixDistance",
      "outputs": [
        {
          "internalType": "int256[6][6]",
          "name": "",
          "type": "int256[6][6]"
        }
      ],
      "payable": false,
      "stateMutability": "view",
      "type": "function"
    },
    {
      "constant": true,
      "inputs": [],
      "name": "getMatrixCost",
      "outputs": [
        {
          "internalType": "int256[6][6]",
          "name": "",
          "type": "int256[6][6]"
        }
      ],
      "payable": false,
      "stateMutability": "view",
      "type": "function"
    },
    {
      "constant": false,
      "inputs": [
        {
          "internalType": "uint256[2][]",
          "name": "pairs",
          "type": "uint256[2][]"
        }
      ],
      "name": "updateCostMatrix",
      "outputs": [
        {
          "internalType": "uint256",
          "name": "",
          "type": "uint256"
        }
      ],
      "payable": true,
      "stateMutability": "payable",
      "type": "function"
    },
    {
      "constant": false,
      "inputs": [
        {
          "internalType": "uint256",
          "name": "_orderID",
          "type": "uint256"
        },
        {
          "internalType": "uint256[2][]",
          "name": "pairs",
          "type": "uint256[2][]"
        }
      ],
      "name": "delieveryComplete",
      "outputs": [
        {
          "internalType": "string",
          "name": "",
          "type": "string"
        }
      ],
      "payable": false,
      "stateMutability": "nonpayable",
      "type": "function"
    }
  ],
  "bytecode": "0x60806040527fffffffffffffffffffffffffffffffffffffffffffffffffffffffffffffffff60005560006001556040518060c0016040528073086c9a35245cc1198440236665c8134e9fed3d2673ffffffffffffffffffffffffffffffffffffffff1673ffffffffffffffffffffffffffffffffffffffff16815260200173a736fed8e0c2f6317898e7090e57bba2bb7c7d4b73ffffffffffffffffffffffffffffffffffffffff1673ffffffffffffffffffffffffffffffffffffffff16815260200173237799f9be53976381ee1b2c2d5006dd23e3576b73ffffffffffffffffffffffffffffffffffffffff1673ffffffffffffffffffffffffffffffffffffffff1681526020017366b327c0bd326c0ad748aef5cf1ccb67f1012e2973ffffffffffffffffffffffffffffffffffffffff1673ffffffffffffffffffffffffffffffffffffffff168152602001734e231d5bc3f18136f30120d98a78b8a22a2d299373ffffffffffffffffffffffffffffffffffffffff1673ffffffffffffffffffffffffffffffffffffffff168152602001737e65a2094a0048f48762c7e8e3c2d1348948aef773ffffffffffffffffffffffffffffffffffffffff1673ffffffffffffffffffffffffffffffffffffffff168152506002906006620001ec92919062000521565b506040518060c001604052806040518060c0016040528060005481526020016106a68152602001610a0081526020016000548152602001610a0081526020016106a681525081526020016040518060c001604052806106a6815260200160005481526020016105658152602001610aaa81526020016000548152602001610c5981525081526020016040518060c00160405280610a008152602001610565815260200160005481526020016107008152602001610c5a815260200160005481525081526020016040518060c001604052806000548152602001610aaa8152602001610700815260200160005481526020016107008152602001610aaa81525081526020016040518060c00160405280610a0081526020016000548152602001610c5a81526020016107008152602001600054815260200161056681525081526020016040518060c001604052806106a68152602001610c5981526020016000548152602001610aaa8152602001610565815260200160005481525081525060049060066200037c929190620005b0565b506040518060c001604052806040518060c0016040528060005481526020016101f481526020016103e8815260200160005481526020016105dc815260200161038481525081526020016040518060c001604052806101f48152602001600054815260200161019081526020016105dc8152602001600054815260200161012c81525081526020016040518060c001604052806103e88152602001610190815260200160005481526020016103e88152602001610190815260200160005481525081526020016040518060c0016040528060005481526020016105dc81526020016103e8815260200160005481526020016101f481526020016105dc81525081526020016040518060c001604052806105dc8152602001600054815260200161019081526020016101f4815260200160005481526020016101f481525081526020016040518060c00160405280610384815260200161012c815260200160005481526020016105dc81526020016101f4815260200160005481525081525060289060066200050c929190620005b0565b503480156200051a57600080fd5b5062000700565b8280548282559060005260206000209081019282156200059d579160200282015b828111156200059c5782518260006101000a81548173ffffffffffffffffffffffffffffffffffffffff021916908373ffffffffffffffffffffffffffffffffffffffff1602179055509160200191906001019062000542565b5b509050620005ac919062000607565b5090565b82600680028101928215620005f4579160200282015b82811115620005f357825182906006620005e29291906200064d565b5091602001919060060190620005c6565b5b50905062000603919062000692565b5090565b6200064a91905b808211156200064657600081816101000a81549073ffffffffffffffffffffffffffffffffffffffff0219169055506001016200060e565b5090565b90565b82600681019282156200067f579160200282015b828111156200067e57825182559160200191906001019062000661565b5b5090506200068e9190620006c3565b5090565b620006c091905b80821115620006bc5760008181620006b29190620006eb565b5060060162000699565b5090565b90565b620006e891905b80821115620006e4576000816000905550600101620006ca565b5090565b90565b508060060190620006fd9190620006c3565b50565b6109d880620007106000396000f3fe60806040526004361061003f5760003560e01c8063084adfa21461004457806334f2abe81461014c578063629b9fb9146102d0578063c926d37314610346575b600080fd5b6101366004803603602081101561005a57600080fd5b810190808035906020019064010000000081111561007757600080fd5b82018360208201111561008957600080fd5b803590602001918460408302840111640100000000831117156100ab57600080fd5b9190808060200260200160405190810160405280939291908181526020016000905b82821015610124578484839050604002016002806020026040519081016040528092919082600260200280828437600081840152601f19601f820116905080830192505050505050815260200190600101906100cd565b505050505091929192905050506103bc565b6040518082815260200191505060405180910390f35b34801561015857600080fd5b506102556004803603604081101561016f57600080fd5b81019080803590602001909291908035906020019064010000000081111561019657600080fd5b8201836020820111156101a857600080fd5b803590602001918460408302840111640100000000831117156101ca57600080fd5b9190808060200260200160405190810160405280939291908181526020016000905b82821015610243578484839050604002016002806020026040519081016040528092919082600260200280828437600081840152601f19601f820116905080830192505050505050815260200190600101906101ec565b5050505050919291929050505061056c565b6040518080602001828103825283818151815260200191508051906020019080838360005b8381101561029557808201518184015260208101905061027a565b50505050905090810190601f1680156102c25780820380516001836020036101000a031916815260200191505b509250505060405180910390f35b3480156102dc57600080fd5b506102e56107c7565b604051808260066000925b818410156103365782846020020151600660200280838360005b8381101561032557808201518184015260208101905061030a565b5050505090500192600101926102f0565b9250505091505060405180910390f35b34801561035257600080fd5b5061035b61084a565b604051808260066000925b818410156103ac5782846020020151600660200280838360005b8381101561039b578082015181840152602081019050610380565b505050509050019260010192610366565b9250505091505060405180910390f35b60006001600081548092919060010191905055506000825190506103de6108cd565b60008090505b60068110156104115760008282600681106103fb57fe5b60200201818152505080806001019150506103e4565b5060008090505b8281101561053a57600085828151811061042e57fe5b602002602001015160006002811061044257fe5b60200201519050600086838151811061045757fe5b602002602001015160016002811061046b57fe5b602002015190506028826006811061047f57fe5b60060201816006811061048e57fe5b015484836006811061049c57fe5b60200201818152505061012c602883600681106104b557fe5b6006020182600681106104c457fe5b015401602883600681106104d457fe5b6006020182600681106104e357fe5b018190555061012c602882600681106104f857fe5b60060201836006811061050757fe5b0154016028826006811061051757fe5b60060201836006811061052657fe5b018190555050508080600101915050610418565b508060036000600154815260200190815260200160002090600661055f9291906108ef565b5060015492505050919050565b606060008251905060008090505b8181101561066957600084828151811061059057fe5b60200260200101516000600281106105a457fe5b6020020151905060008583815181106105b957fe5b60200260200101516001600281106105cd57fe5b6020020151905061012c602883600681106105e457fe5b6006020182600681106105f357fe5b0154036028836006811061060357fe5b60060201826006811061061257fe5b018190555061012c6028826006811061062757fe5b60060201836006811061063657fe5b0154036028826006811061064657fe5b60060201836006811061065557fe5b01819055505050808060010191505061057a565b506106726108cd565b600360008681526020019081526020016000206006806020026040519081016040528092919082600680156106bc576020028201915b8154815260200190600101908083116106a8575b5050505050905060008090505b60068110156107865760008282600681106106e057fe5b60200201511461077957600281815481106106f757fe5b9060005260206000200160009054906101000a900473ffffffffffffffffffffffffffffffffffffffff1673ffffffffffffffffffffffffffffffffffffffff166108fc83836006811061074757fe5b60200201519081150290604051600060405180830381858888f19350505050158015610777573d6000803e3d6000fd5b505b80806001019150506106c9565b506040518060400160405280600681526020017f3230305f4f4b00000000000000000000000000000000000000000000000000008152509250505092915050565b6107cf61092f565b6004600680602002604051908101604052809291906000905b828210156108415783826006020160068060200260405190810160405280929190826006801561082d576020028201915b815481526020019060010190808311610819575b5050505050815260200190600101906107e8565b50505050905090565b61085261092f565b6028600680602002604051908101604052809291906000905b828210156108c4578382600602016006806020026040519081016040528092919082600680156108b0576020028201915b81548152602001906001019080831161089c575b50505050508152602001906001019061086b565b50505050905090565b6040518060c00160405280600690602082028038833980820191505090505090565b826006810192821561091e579160200282015b8281111561091d578251825591602001919060010190610902565b5b50905061092b919061095c565b5090565b6040518060c001604052806006905b610946610981565b81526020019060019003908161093e5790505090565b61097e91905b8082111561097a576000816000905550600101610962565b5090565b90565b6040518060c0016040528060069060208202803883398082019150509050509056fea265627a7a723158200925379152eddff792fadee95ff26a5482a82fd7348d0a47e43e1e1ba55bfdc264736f6c634300050c0032",
  "source": "pragma solidity >=0.4.21 <0.6.0;\n\ncontract bird{\n    int _ = int(-1);\n    uint orderID = 0;\n    address payable[] droneAddress = [0x086C9A35245cC1198440236665c8134e9FeD3D26,\n    0xa736FeD8e0C2F6317898E7090e57bBA2bB7c7D4b,\n    0x237799f9BE53976381eE1b2c2D5006DD23E3576b,\n    0x66B327C0Bd326c0ad748AeF5CF1CCB67F1012e29,\n    0x4E231D5BC3f18136f30120d98A78b8A22a2D2993,\n    0x7E65A2094a0048f48762C7e8E3C2d1348948aEf7\n    ];\n\n    // function to take input address for each drone\n    /*\n    function addDroneAddr(address payable _address, uint index) public returns(string memory){\n        droneAddress[index] = _address;\n        return \"OK droneAddr\";\n    }\n    */\n    //mnemonics : board weasel tip physical alien charge exhaust exclude approve cabin frost excite\n    mapping(uint => uint[6]) paymentDue; // mapping from orderID to payment_due_to_each_drone\n    //uint[] paymentOrderIDs;\n\n    // array to be updated later\n    int[6][6] distanceArray = [[_,int(1702),int(2560),_,int(2560),int(1702)],\n        [int(1702),_,int(1381),int(2730),_,int(3161)],\n        [int(2560),int(1381),_,int(1792),int(3162),_],\n        [_,int(2730),int(1792),_,int(1792),int(2730)],\n        [int(2560),_,int(3162),int(1792),_,int(1382)],\n        [int(1702),int(3161),_,int(2730),int(1381),_]\n    ];\n\n    int[6][6] costArray = [[_, 500, 1000, _, 1500, 900],\n        [500, _, 400, 1500, _, 300],\n        [1000, 400, _, 1000, 400, _],\n        [_, 1500, 1000, _, 500, 1500],\n        [1500, _, 400, 500, _, 500],\n        [900, 300, _, 1500, 500, _]\n    ];\n\n    // function to fetch the updated Distance Array\n    function getMatrixDistance() public view returns(int[6][6] memory){\n        return distanceArray;\n    }\n\n    // function to fetch the updated Cost Array\n    function getMatrixCost() public view returns(int[6][6] memory){\n        return costArray;\n    }\n\n    // function to update the Cost matrix and return an generated orderID\n\n    function updateCostMatrix(uint[2][] memory pairs) public payable returns(uint){\n        orderID++;\n        uint arrLen = pairs.length;\n        uint[6] memory tempPay;\n\n        for(uint i = 0; i<6; i++){\n            tempPay[i] = 0;\n        }\n\n        for(uint i = 0; i<arrLen; i++){\n            uint x = uint(pairs[i][0]);\n            uint y = uint(pairs[i][1]);\n            tempPay[x] = uint(costArray[x][y]);\n            costArray[x][y] = int(costArray[x][y]) + 300; // increasing price by 300\n            costArray[y][x] = int(costArray[y][x]) + 300; // increasing price by 300\n        }\n        paymentDue[orderID] = tempPay;\n        //paymentOrderIDs.push(orderID);\n        return orderID;\n    }\n    function delieveryComplete(uint _orderID, uint[2][] memory pairs) public returns(string memory){\n        //deleteElement(_orderID);\n        uint arrLen = pairs.length;\n        for(uint i = 0; i<arrLen; i++){\n            uint x = uint(pairs[i][0]);\n            uint y = uint(pairs[i][1]);\n            costArray[x][y] = int(costArray[x][y]) - 300; // decreasing price by 300\n            costArray[y][x] = int(costArray[y][x]) - 300; // decreasing price by 300\n        }\n        uint[6] memory temp = paymentDue[_orderID];\n        for(uint i = 0; i<6; i++){\n            if(temp[i] != 0){\n                droneAddress[i].transfer(temp[i]);\n            }\n        }\n        return \"200_OK\";\n    }\n}",
  "sourcePath": "/home/nmnkhr/Desktop/BlueBird/contracts/Bird.sol",
  "compiler": {
    "name": "solc",
    "version": "0.5.12+commit.7709ece9.Emscripten.clang"
  },
  "schemaVersion": "3.0.19",
  "updatedAt": "2019-11-22T21:18:17.159Z",
  "networkType": "ethereum",
  "devdoc": {
    "methods": {}
  },
  "userdoc": {
    "methods": {}
  }
}