{
  "contractName": "bird",
  "abi": [
    {
      "constant": true,
      "inputs": [],
      "name": "getMatrixDistance",
      "outputs": [
        {
          "internalType": "int256[6][6]",
          "name": "",
          "type": "int256[6][6]"
        }
      ],
      "payable": false,
      "stateMutability": "view",
      "type": "function"
    },
    {
      "constant": true,
      "inputs": [],
      "name": "getMatrixCost",
      "outputs": [
        {
          "internalType": "int256[6][6]",
          "name": "",
          "type": "int256[6][6]"
        }
      ],
      "payable": false,
      "stateMutability": "view",
      "type": "function"
    },
    {
      "constant": false,
      "inputs": [
        {
          "internalType": "uint256[2][]",
          "name": "pairs",
          "type": "uint256[2][]"
        }
      ],
      "name": "updateCostMatrix",
      "outputs": [
        {
          "internalType": "uint256",
          "name": "",
          "type": "uint256"
        }
      ],
      "payable": true,
      "stateMutability": "payable",
      "type": "function"
    },
    {
      "constant": false,
      "inputs": [
        {
          "internalType": "uint256",
          "name": "_orderID",
          "type": "uint256"
        },
        {
          "internalType": "uint256[2][]",
          "name": "pairs",
          "type": "uint256[2][]"
        }
      ],
      "name": "delieveryComplete",
      "outputs": [
        {
          "internalType": "string",
          "name": "",
          "type": "string"
        }
      ],
      "payable": false,
      "stateMutability": "nonpayable",
      "type": "function"
    }
  ],
  "bytecode": "0x60806040527fffffffffffffffffffffffffffffffffffffffffffffffffffffffffffffffff60005560006001556040518060c001604052806040518060c0016040528060005481526020016106a68152602001610a0081526020016000548152602001610a0081526020016106a681525081526020016040518060c001604052806106a6815260200160005481526020016105658152602001610aaa81526020016000548152602001610c5981525081526020016040518060c00160405280610a008152602001610565815260200160005481526020016107008152602001610c5a815260200160005481525081526020016040518060c001604052806000548152602001610aaa8152602001610700815260200160005481526020016107008152602001610aaa81525081526020016040518060c00160405280610a0081526020016000548152602001610c5a81526020016107008152602001600054815260200161056681525081526020016040518060c001604052806106a68152602001610c5981526020016000548152602001610aaa8152602001610565815260200160005481525081525060039060066101ba92919061035b565b506040518060c001604052806040518060c0016040528060005481526020016101f481526020016105dc815260200160005481526020016105dc81526020016101f481525081526020016040518060c001604052806101f4815260200160005481526020016101f481526020016105dc815260200160005481526020016105dc81525081526020016040518060c001604052806105dc81526020016101f4815260200160005481526020016101f481526020016105dc815260200160005481525081526020016040518060c0016040528060005481526020016105dc81526020016101f4815260200160005481526020016101f481526020016105dc81525081526020016040518060c001604052806105dc815260200160005481526020016105dc81526020016101f4815260200160005481526020016101f481525081526020016040518060c001604052806101f481526020016105dc815260200160005481526020016105dc81526020016101f48152602001600054815250815250602790600661034892919061035b565b5034801561035557600080fd5b5061044f565b8260068002810192821561039a579160200282015b82811115610399578251829060066103899291906103ab565b5091602001919060060190610370565b5b5090506103a791906103eb565b5090565b82600681019282156103da579160200282015b828111156103d95782518255916020019190600101906103be565b5b5090506103e79190610417565b5090565b61041491905b808211156104105760008181610407919061043c565b506006016103f1565b5090565b90565b61043991905b8082111561043557600081600090555060010161041d565b5090565b90565b50806006019061044c9190610417565b50565b6108ba806200045f6000396000f3fe60806040526004361061003f5760003560e01c8063084adfa21461004457806334f2abe81461014c578063629b9fb9146102d0578063c926d37314610346575b600080fd5b6101366004803603602081101561005a57600080fd5b810190808035906020019064010000000081111561007757600080fd5b82018360208201111561008957600080fd5b803590602001918460408302840111640100000000831117156100ab57600080fd5b9190808060200260200160405190810160405280939291908181526020016000905b82821015610124578484839050604002016002806020026040519081016040528092919082600260200280828437600081840152601f19601f820116905080830192505050505050815260200190600101906100cd565b505050505091929192905050506103bc565b6040518082815260200191505060405180910390f35b34801561015857600080fd5b506102556004803603604081101561016f57600080fd5b81019080803590602001909291908035906020019064010000000081111561019657600080fd5b8201836020820111156101a857600080fd5b803590602001918460408302840111640100000000831117156101ca57600080fd5b9190808060200260200160405190810160405280939291908181526020016000905b82821015610243578484839050604002016002806020026040519081016040528092919082600260200280828437600081840152601f19601f820116905080830192505050505050815260200190600101906101ec565b5050505050919291929050505061056c565b6040518080602001828103825283818151815260200191508051906020019080838360005b8381101561029557808201518184015260208101905061027a565b50505050905090810190601f1680156102c25780820380516001836020036101000a031916815260200191505b509250505060405180910390f35b3480156102dc57600080fd5b506102e56106a9565b604051808260066000925b818410156103365782846020020151600660200280838360005b8381101561032557808201518184015260208101905061030a565b5050505090500192600101926102f0565b9250505091505060405180910390f35b34801561035257600080fd5b5061035b61072c565b604051808260066000925b818410156103ac5782846020020151600660200280838360005b8381101561039b578082015181840152602081019050610380565b505050509050019260010192610366565b9250505091505060405180910390f35b60006001600081548092919060010191905055506000825190506103de6107af565b60008090505b60068110156104115760008282600681106103fb57fe5b60200201818152505080806001019150506103e4565b5060008090505b8281101561053a57600085828151811061042e57fe5b602002602001015160006002811061044257fe5b60200201519050600086838151811061045757fe5b602002602001015160016002811061046b57fe5b602002015190506027826006811061047f57fe5b60060201816006811061048e57fe5b015484836006811061049c57fe5b60200201818152505061012c602783600681106104b557fe5b6006020182600681106104c457fe5b015401602783600681106104d457fe5b6006020182600681106104e357fe5b018190555061012c602782600681106104f857fe5b60060201836006811061050757fe5b0154016027826006811061051757fe5b60060201836006811061052657fe5b018190555050508080600101915050610418565b508060026000600154815260200190815260200160002090600661055f9291906107d1565b5060015492505050919050565b606060008251905060008090505b8181101561066957600084828151811061059057fe5b60200260200101516000600281106105a457fe5b6020020151905060008583815181106105b957fe5b60200260200101516001600281106105cd57fe5b6020020151905061012c602783600681106105e457fe5b6006020182600681106105f357fe5b0154036027836006811061060357fe5b60060201826006811061061257fe5b018190555061012c6027826006811061062757fe5b60060201836006811061063657fe5b0154036027826006811061064657fe5b60060201836006811061065557fe5b01819055505050808060010191505061057a565b506040518060400160405280600581526020017f3230304f4b00000000000000000000000000000000000000000000000000000081525091505092915050565b6106b1610811565b6003600680602002604051908101604052809291906000905b828210156107235783826006020160068060200260405190810160405280929190826006801561070f576020028201915b8154815260200190600101908083116106fb575b5050505050815260200190600101906106ca565b50505050905090565b610734610811565b6027600680602002604051908101604052809291906000905b828210156107a657838260060201600680602002604051908101604052809291908260068015610792576020028201915b81548152602001906001019080831161077e575b50505050508152602001906001019061074d565b50505050905090565b6040518060c00160405280600690602082028038833980820191505090505090565b8260068101928215610800579160200282015b828111156107ff5782518255916020019190600101906107e4565b5b50905061080d919061083e565b5090565b6040518060c001604052806006905b610828610863565b8152602001906001900390816108205790505090565b61086091905b8082111561085c576000816000905550600101610844565b5090565b90565b6040518060c0016040528060069060208202803883398082019150509050509056fea265627a7a7231582016f9ade9e982f8e3d1e1707b80c28c909fcac4947f2abb279ebbecac239fa34564736f6c634300050c0032",
  "source": "pragma solidity >=0.4.21 <0.6.0;\n\ncontract bird{\n    int _ = int(-1);\n    uint orderID = 0;\n    // address payable[] droneAddress = [0x086C9A35245cC1198440236665c8134e9FeD3D26,\n    // 0xa736FeD8e0C2F6317898E7090e57bBA2bB7c7D4b,\n    // 0x237799f9BE53976381eE1b2c2D5006DD23E3576b,\n    // 0x66B327C0Bd326c0ad748AeF5CF1CCB67F1012e29,\n    // 0x4E231D5BC3f18136f30120d98A78b8A22a2D2993,\n    // 0x7E65A2094a0048f48762C7e8E3C2d1348948aEf7\n    // ];\n\n    // function to take input address for each drone\n    /*\n    function addDroneAddr(address payable _address, uint index) public returns(string memory){\n        droneAddress[index] = _address;\n        return \"OK droneAddr\";\n    }\n    */\n    //mnemonics : board weasel tip physical alien charge exhaust exclude approve cabin frost excite\n    mapping(uint => uint[6]) paymentDue; // mapping from orderID to payment_due_to_each_drone\n    //uint[] paymentOrderIDs;\n\n    // array to be updated later\n    int[6][6] distanceArray = [[_,int(1702),int(2560),_,int(2560),int(1702)],\n        [int(1702),_,int(1381),int(2730),_,int(3161)],\n        [int(2560),int(1381),_,int(1792),int(3162),_],\n        [_,int(2730),int(1792),_,int(1792),int(2730)],\n        [int(2560),_,int(3162),int(1792),_,int(1382)],\n        [int(1702),int(3161),_,int(2730),int(1381),_]\n    ];\n\n    int[6][6] costArray = [[_, int(500), int(1500), _, int(1500), int(500)],\n        [int(500), _, int(500), int(1500), _, int(1500)],\n        [int(1500), int(500), _, int(500), int(1500), _],\n        [_, int(1500), int(500), _, int(500), int(1500)],\n        [int(1500), _, int(1500), int(500), _, int(500)],\n        [int(500), int(1500), _, int(1500), int(500), _]\n    ];\n\n    // function to fetch the updated Distance Array\n    function getMatrixDistance() public view returns(int[6][6] memory){\n        return distanceArray;\n    }\n\n    // function to fetch the updated Cost Array\n    function getMatrixCost() public view returns(int[6][6] memory){\n        return costArray;\n    }\n\n    // function to update the Cost matrix and return an generated orderID\n\n    function updateCostMatrix(uint[2][] memory pairs) public payable returns(uint){\n        orderID++;\n        uint arrLen = pairs.length;\n        uint[6] memory tempPay;\n\n        for(uint i = 0; i<6; i++){\n            tempPay[i] = 0;\n        }\n\n        for(uint i = 0; i<arrLen; i++){\n            uint x = uint(pairs[i][0]);\n            uint y = uint(pairs[i][1]);\n            tempPay[x] = uint(costArray[x][y]);\n            costArray[x][y] = int(costArray[x][y]) + 300; // increasing price by 300\n            costArray[y][x] = int(costArray[y][x]) + 300; // increasing price by 300\n        }\n        paymentDue[orderID] = tempPay;\n        //paymentOrderIDs.push(orderID);\n        return orderID;\n    }\n    function delieveryComplete(uint _orderID, uint[2][] memory pairs) public returns(string memory){\n        //deleteElement(_orderID);\n        uint arrLen = pairs.length;\n        for(uint i = 0; i<arrLen; i++){\n            uint x = uint(pairs[i][0]);\n            uint y = uint(pairs[i][1]);\n            costArray[x][y] = int(costArray[x][y]) - 300; // decreasing price by 300\n            costArray[y][x] = int(costArray[y][x]) - 300; // decreasing price by 300\n        }\n        //uint[6] memory temp = paymentDue[_orderID];\n        //for(uint i = 0; i<6; i++){\n        //    if(temp[i] != 0){\n        //        droneAddress[i].transfer(temp[i]);\n        //    }\n        //}\n        return \"200OK\";\n    }\n}",
  "sourcePath": "/Users/nikhil/Downloads/minorproject/BlueBird/contracts/Bird.sol",
  "compiler": {
    "name": "solc",
    "version": "0.5.12+commit.7709ece9.Emscripten.clang"
  },
  "schemaVersion": "3.0.19",
  "updatedAt": "2019-11-23T14:14:08.041Z",
  "networkType": "ethereum",
  "devdoc": {
    "methods": {}
  },
  "userdoc": {
    "methods": {}
  }
}