{
  "contractName": "test",
  "abi": [
    {
      "constant": false,
      "inputs": [],
      "name": "dummy",
      "outputs": [
        {
          "internalType": "uint256",
          "name": "",
          "type": "uint256"
        }
      ],
      "payable": true,
      "stateMutability": "payable",
      "type": "function"
    }
  ],
  "bytecode": "0x6080604052348015600f57600080fd5b5060838061001e6000396000f3fe608060405260043610601c5760003560e01c806332e43a11146021575b600080fd5b6027603d565b6040518082815260200191505060405180910390f35b60003460008190555060005490509056fea265627a7a7231582047a7631e4311bb130ef8460b25206a8ce1101fb763cc0284e2add14546f6b56264736f6c634300050c0032",
  "source": "pragma solidity >=0.4.21 <0.6.0;\n\ncontract test{\n    uint num;\n    function dummy()external payable returns(uint){\n        num = msg.value;\n        return num;\n    }\n}",
  "sourcePath": "/home/nmnkhr/Desktop/BlueBird/contracts/test.sol",
  "compiler": {
    "name": "solc",
    "version": "0.5.12+commit.7709ece9.Emscripten.clang"
  },
  "schemaVersion": "3.0.19",
  "updatedAt": "2019-11-21T21:18:13.706Z",
  "networkType": "ethereum",
  "devdoc": {
    "methods": {}
  },
  "userdoc": {
    "methods": {}
  }
}