{
  "contractName": "test",
  "abi": [
    {
      "constant": false,
      "inputs": [],
      "name": "dummy",
      "outputs": [
        {
          "internalType": "uint256",
          "name": "",
          "type": "uint256"
        }
      ],
      "payable": true,
      "stateMutability": "payable",
      "type": "function"
    }
  ],
  "bytecode": "0x6080604052348015600f57600080fd5b5060838061001e6000396000f3fe608060405260043610601c5760003560e01c806332e43a11146021575b600080fd5b6027603d565b6040518082815260200191505060405180910390f35b60003460008190555060005490509056fea265627a7a72315820428cf769d65b0b491e9672463f4c69a58d1b428e9cafb6d459c4a6f4f3c9681564736f6c634300050c0032",
  "source": "pragma solidity >=0.4.21 <0.6.0;\n\ncontract test{\n    uint num;\n    function dummy()external payable returns(uint){\n        num = msg.value;\n        return num;\n    }\n}",
  "sourcePath": "/Users/dhruvgupta/Documents/College/Minor/blueBird/contracts/test.sol",
  "compiler": {
    "name": "solc",
    "version": "0.5.12+commit.7709ece9.Emscripten.clang"
  },
  "schemaVersion": "3.0.19",
  "updatedAt": "2019-11-23T08:34:27.308Z",
  "devdoc": {
    "methods": {}
  },
  "userdoc": {
    "methods": {}
  }
}